{
  "_format": "hh-sol-artifact-1",
  "contractName": "Create",
  "sourceName": "contracts/VotingContract.sol",
  "abi": [
    {
      "inputs": [],
      "stateMutability": "nonpayable",
      "type": "constructor"
    },
    {
      "anonymous": false,
      "inputs": [
        {
          "indexed": true,
          "internalType": "uint256",
          "name": "candidateId",
          "type": "uint256"
        },
        {
          "indexed": false,
          "internalType": "string",
          "name": "age",
          "type": "string"
        },
        {
          "indexed": false,
          "internalType": "string",
          "name": "name",
          "type": "string"
        },
        {
          "indexed": false,
          "internalType": "string",
          "name": "image",
          "type": "string"
        },
        {
          "indexed": false,
          "internalType": "uint256",
          "name": "voteCount",
          "type": "uint256"
        },
        {
          "indexed": false,
          "internalType": "address",
          "name": "_address",
          "type": "address"
        },
        {
          "indexed": false,
          "internalType": "string",
          "name": "ipfs",
          "type": "string"
        }
      ],
      "name": "CandidateCreate",
      "type": "event"
    },
    {
      "anonymous": false,
      "inputs": [
        {
          "indexed": true,
          "internalType": "uint256",
          "name": "voter_voterId",
          "type": "uint256"
        },
        {
          "indexed": false,
          "internalType": "string",
          "name": "voter_name",
          "type": "string"
        },
        {
          "indexed": false,
          "internalType": "string",
          "name": "voter_image",
          "type": "string"
        },
        {
          "indexed": false,
          "internalType": "address",
          "name": "voter_address",
          "type": "address"
        },
        {
          "indexed": false,
          "internalType": "uint256",
          "name": "voter_allowed",
          "type": "uint256"
        },
        {
          "indexed": false,
          "internalType": "bool",
          "name": "voter_voted",
          "type": "bool"
        },
        {
          "indexed": false,
          "internalType": "uint256",
          "name": "voter_vote",
          "type": "uint256"
        },
        {
          "indexed": false,
          "internalType": "string",
          "name": "voter_ips",
          "type": "string"
        }
      ],
      "name": "VoterCreated",
      "type": "event"
    },
    {
      "inputs": [],
      "name": "_candidateId",
      "outputs": [
        {
          "internalType": "uint256",
          "name": "_value",
          "type": "uint256"
        }
      ],
      "stateMutability": "view",
      "type": "function"
    },
    {
      "inputs": [],
      "name": "_voterId",
      "outputs": [
        {
          "internalType": "uint256",
          "name": "_value",
          "type": "uint256"
        }
      ],
      "stateMutability": "view",
      "type": "function"
    },
    {
      "inputs": [
        {
          "internalType": "uint256",
          "name": "",
          "type": "uint256"
        }
      ],
      "name": "candidateAddress",
      "outputs": [
        {
          "internalType": "address",
          "name": "",
          "type": "address"
        }
      ],
      "stateMutability": "view",
      "type": "function"
    },
    {
      "inputs": [
        {
          "internalType": "address",
          "name": "",
          "type": "address"
        }
      ],
      "name": "candidates",
      "outputs": [
        {
          "internalType": "uint256",
          "name": "candidateId",
          "type": "uint256"
        },
        {
          "internalType": "string",
          "name": "age",
          "type": "string"
        },
        {
          "internalType": "string",
          "name": "name",
          "type": "string"
        },
        {
          "internalType": "string",
          "name": "image",
          "type": "string"
        },
        {
          "internalType": "uint256",
          "name": "voteCount",
          "type": "uint256"
        },
        {
          "internalType": "address",
          "name": "_address",
          "type": "address"
        },
        {
          "internalType": "string",
          "name": "ipfs",
          "type": "string"
        }
      ],
      "stateMutability": "view",
      "type": "function"
    },
    {
      "inputs": [],
      "name": "getCandidate",
      "outputs": [
        {
          "internalType": "address[]",
          "name": "",
          "type": "address[]"
        }
      ],
      "stateMutability": "view",
      "type": "function"
    },
    {
      "inputs": [],
      "name": "getCandidateLength",
      "outputs": [
        {
          "internalType": "uint256",
          "name": "",
          "type": "uint256"
        }
      ],
      "stateMutability": "view",
      "type": "function"
    },
    {
      "inputs": [
        {
          "internalType": "address",
          "name": "_address",
          "type": "address"
        }
      ],
      "name": "getCandidatedata",
      "outputs": [
        {
          "internalType": "string",
          "name": "",
          "type": "string"
        },
        {
          "internalType": "string",
          "name": "",
          "type": "string"
        },
        {
          "internalType": "uint256",
          "name": "",
          "type": "uint256"
        },
        {
          "internalType": "string",
          "name": "",
          "type": "string"
        },
        {
          "internalType": "uint256",
          "name": "",
          "type": "uint256"
        },
        {
          "internalType": "string",
          "name": "",
          "type": "string"
        },
        {
          "internalType": "address",
          "name": "",
          "type": "address"
        }
      ],
      "stateMutability": "view",
      "type": "function"
    },
    {
      "inputs": [],
      "name": "getVoterLength",
      "outputs": [
        {
          "internalType": "uint256",
          "name": "",
          "type": "uint256"
        }
      ],
      "stateMutability": "view",
      "type": "function"
    },
    {
      "inputs": [],
      "name": "getVoterList",
      "outputs": [
        {
          "internalType": "address[]",
          "name": "",
          "type": "address[]"
        }
      ],
      "stateMutability": "view",
      "type": "function"
    },
    {
      "inputs": [
        {
          "internalType": "address",
          "name": "_address",
          "type": "address"
        }
      ],
      "name": "getVoterdata",
      "outputs": [
        {
          "internalType": "uint256",
          "name": "",
          "type": "uint256"
        },
        {
          "internalType": "string",
          "name": "",
          "type": "string"
        },
        {
          "internalType": "string",
          "name": "",
          "type": "string"
        },
        {
          "internalType": "address",
          "name": "",
          "type": "address"
        },
        {
          "internalType": "string",
          "name": "",
          "type": "string"
        },
        {
          "internalType": "uint256",
          "name": "",
          "type": "uint256"
        },
        {
          "internalType": "bool",
          "name": "",
          "type": "bool"
        }
      ],
      "stateMutability": "view",
      "type": "function"
    },
    {
      "inputs": [
        {
          "internalType": "address",
          "name": "_address",
          "type": "address"
        },
        {
          "internalType": "string",
          "name": "_age",
          "type": "string"
        },
        {
          "internalType": "string",
          "name": "_name",
          "type": "string"
        },
        {
          "internalType": "string",
          "name": "_image",
          "type": "string"
        },
        {
          "internalType": "string",
          "name": "_ipfs",
          "type": "string"
        }
      ],
      "name": "setCandidate",
      "outputs": [],
      "stateMutability": "nonpayable",
      "type": "function"
    },
    {
      "inputs": [
        {
          "internalType": "address",
          "name": "_candidateAddress",
          "type": "address"
        },
        {
          "internalType": "uint256",
          "name": "_candidateVoteId",
          "type": "uint256"
        }
      ],
      "name": "vote",
      "outputs": [],
      "stateMutability": "nonpayable",
      "type": "function"
    },
    {
      "inputs": [
        {
          "internalType": "uint256",
          "name": "",
          "type": "uint256"
        }
      ],
      "name": "votedVoters",
      "outputs": [
        {
          "internalType": "address",
          "name": "",
          "type": "address"
        }
      ],
      "stateMutability": "view",
      "type": "function"
    },
    {
      "inputs": [
        {
          "internalType": "address",
          "name": "_address",
          "type": "address"
        },
        {
          "internalType": "string",
          "name": "_name",
          "type": "string"
        },
        {
          "internalType": "string",
          "name": "_image",
          "type": "string"
        },
        {
          "internalType": "string",
          "name": "_ipfs",
          "type": "string"
        }
      ],
      "name": "voterRigth",
      "outputs": [],
      "stateMutability": "nonpayable",
      "type": "function"
    },
    {
      "inputs": [
        {
          "internalType": "address",
          "name": "",
          "type": "address"
        }
      ],
      "name": "voters",
      "outputs": [
        {
          "internalType": "uint256",
          "name": "voter_voterId",
          "type": "uint256"
        },
        {
          "internalType": "string",
          "name": "voter_name",
          "type": "string"
        },
        {
          "internalType": "string",
          "name": "voter_image",
          "type": "string"
        },
        {
          "internalType": "address",
          "name": "voter_address",
          "type": "address"
        },
        {
          "internalType": "uint256",
          "name": "voter_allowed",
          "type": "uint256"
        },
        {
          "internalType": "bool",
          "name": "voter_voted",
          "type": "bool"
        },
        {
          "internalType": "uint256",
          "name": "voter_vote",
          "type": "uint256"
        },
        {
          "internalType": "string",
          "name": "voter_ips",
          "type": "string"
        }
      ],
      "stateMutability": "view",
      "type": "function"
    },
    {
      "inputs": [
        {
          "internalType": "uint256",
          "name": "",
          "type": "uint256"
        }
      ],
      "name": "votersAddress",
      "outputs": [
        {
          "internalType": "address",
          "name": "",
          "type": "address"
        }
      ],
      "stateMutability": "view",
      "type": "function"
    },
    {
      "inputs": [],
      "name": "votingOrganizer",
      "outputs": [
        {
          "internalType": "address",
          "name": "",
          "type": "address"
        }
      ],
      "stateMutability": "view",
      "type": "function"
    }
  ],
  "bytecode": "0x608060405234801561001057600080fd5b5033600260006101000a81548173ffffffffffffffffffffffffffffffffffffffff021916908373ffffffffffffffffffffffffffffffffffffffff1602179055506126ce806100616000396000f3fe608060405234801561001057600080fd5b506004361061010b5760003560e01c80638ab66a90116100a2578063b63c82ca11610071578063b63c82ca146102db578063b9be315214610311578063c5036fd41461032f578063c91ec71214610365578063f7522a83146103815761010b565b80638ab66a9014610232578063a3ec138d14610268578063a73889671461029f578063b28d92ae146102bd5761010b565b80635f74bbde116100de5780635f74bbde146101ac5780636b323a1a146101c857806370218b85146101e45780637831ffb3146102025761010b565b806305ad45a4146101105780633a88251a1461012e57806343242daa1461015e5780635cc48aa71461018e575b600080fd5b61011861039f565b6040516101259190611a30565b60405180910390f35b61014860048036038101906101439190611a8b565b6103ac565b6040516101559190611af9565b60405180910390f35b61017860048036038101906101739190611a8b565b6103eb565b6040516101859190611af9565b60405180910390f35b61019661042a565b6040516101a39190611af9565b60405180910390f35b6101c660048036038101906101c19190611b40565b610450565b005b6101e260048036038101906101dd9190611cc6565b610618565b005b6101ec6108db565b6040516101f99190611e3f565b60405180910390f35b61021c60048036038101906102179190611a8b565b610969565b6040516102299190611af9565b60405180910390f35b61024c60048036038101906102479190611e61565b6109a8565b60405161025f9796959493929190611f16565b60405180910390f35b610282600480360381019061027d9190611e61565b610c2a565b604051610296989796959493929190611fbc565b60405180910390f35b6102a7610e37565b6040516102b49190611a30565b60405180910390f35b6102c5610e43565b6040516102d29190611e3f565b60405180910390f35b6102f560048036038101906102f09190611e61565b610ed1565b604051610308979695949392919061204f565b60405180910390f35b610319611318565b6040516103269190611a30565b60405180910390f35b61034960048036038101906103449190611e61565b611324565b60405161035c97969594939291906120da565b60405180910390f35b61037f600480360381019061037a919061215e565b6116ec565b005b610389611943565b6040516103969190611a30565b60405180910390f35b6000600680549050905090565b600381815481106103bc57600080fd5b906000526020600020016000915054906101000a900473ffffffffffffffffffffffffffffffffffffffff1681565b600681815481106103fb57600080fd5b906000526020600020016000915054906101000a900473ffffffffffffffffffffffffffffffffffffffff1681565b600260009054906101000a900473ffffffffffffffffffffffffffffffffffffffff1681565b6000600760003373ffffffffffffffffffffffffffffffffffffffff1673ffffffffffffffffffffffffffffffffffffffff16815260200190815260200160002090508060050160009054906101000a900460ff16156104e5576040517f08c379a00000000000000000000000000000000000000000000000000000000081526004016104dc90612295565b60405180910390fd5b60008160040154141561052d576040517f08c379a000000000000000000000000000000000000000000000000000000000815260040161052490612301565b60405180910390fd5b60018160050160006101000a81548160ff0219169083151502179055508181600601819055506005339080600181540180825580915050600190039060005260206000200160009091909190916101000a81548173ffffffffffffffffffffffffffffffffffffffff021916908373ffffffffffffffffffffffffffffffffffffffff1602179055508060040154600460008573ffffffffffffffffffffffffffffffffffffffff1673ffffffffffffffffffffffffffffffffffffffff168152602001908152602001600020600401600082825461060c9190612350565b92505081905550505050565b3373ffffffffffffffffffffffffffffffffffffffff16600260009054906101000a900473ffffffffffffffffffffffffffffffffffffffff1673ffffffffffffffffffffffffffffffffffffffff16146106a8576040517f08c379a000000000000000000000000000000000000000000000000000000000815260040161069f90612418565b60405180910390fd5b6106b26000611950565b60006106be6000611966565b90506000600760008773ffffffffffffffffffffffffffffffffffffffff1673ffffffffffffffffffffffffffffffffffffffff1681526020019081526020016000209050600081600401541461074a576040517f08c379a000000000000000000000000000000000000000000000000000000000815260040161074190612484565b60405180910390fd5b600181600401819055508481600101908051906020019061076c929190611974565b5083816002019080519060200190610785929190611974565b50858160030160006101000a81548173ffffffffffffffffffffffffffffffffffffffff021916908373ffffffffffffffffffffffffffffffffffffffff1602179055508181600001819055506103e8816006018190555060008160050160006101000a81548160ff02191690831515021790555082816007019080519060200190610812929190611974565b506006869080600181540180825580915050600190039060005260206000200160009091909190916101000a81548173ffffffffffffffffffffffffffffffffffffffff021916908373ffffffffffffffffffffffffffffffffffffffff160217905550817ff5f39971dd62d9929e3a9feaa6bb77fe7c7da0001babff8a65a7e51ad0201c1986868985600401548660050160009054906101000a900460ff1687600601548a6040516108cb97969594939291906124a4565b60405180910390a2505050505050565b6060600380548060200260200160405190810160405280929190818152602001828054801561095f57602002820191906000526020600020905b8160009054906101000a900473ffffffffffffffffffffffffffffffffffffffff1673ffffffffffffffffffffffffffffffffffffffff1681526020019060010190808311610915575b5050505050905090565b6005818154811061097957600080fd5b906000526020600020016000915054906101000a900473ffffffffffffffffffffffffffffffffffffffff1681565b60046020528060005260406000206000915090508060000154908060010180546109d190612557565b80601f01602080910402602001604051908101604052809291908181526020018280546109fd90612557565b8015610a4a5780601f10610a1f57610100808354040283529160200191610a4a565b820191906000526020600020905b815481529060010190602001808311610a2d57829003601f168201915b505050505090806002018054610a5f90612557565b80601f0160208091040260200160405190810160405280929190818152602001828054610a8b90612557565b8015610ad85780601f10610aad57610100808354040283529160200191610ad8565b820191906000526020600020905b815481529060010190602001808311610abb57829003601f168201915b505050505090806003018054610aed90612557565b80601f0160208091040260200160405190810160405280929190818152602001828054610b1990612557565b8015610b665780601f10610b3b57610100808354040283529160200191610b66565b820191906000526020600020905b815481529060010190602001808311610b4957829003601f168201915b5050505050908060040154908060050160009054906101000a900473ffffffffffffffffffffffffffffffffffffffff1690806006018054610ba790612557565b80601f0160208091040260200160405190810160405280929190818152602001828054610bd390612557565b8015610c205780601f10610bf557610100808354040283529160200191610c20565b820191906000526020600020905b815481529060010190602001808311610c0357829003601f168201915b5050505050905087565b6007602052806000526040600020600091509050806000015490806001018054610c5390612557565b80601f0160208091040260200160405190810160405280929190818152602001828054610c7f90612557565b8015610ccc5780601f10610ca157610100808354040283529160200191610ccc565b820191906000526020600020905b815481529060010190602001808311610caf57829003601f168201915b505050505090806002018054610ce190612557565b80601f0160208091040260200160405190810160405280929190818152602001828054610d0d90612557565b8015610d5a5780601f10610d2f57610100808354040283529160200191610d5a565b820191906000526020600020905b815481529060010190602001808311610d3d57829003601f168201915b5050505050908060030160009054906101000a900473ffffffffffffffffffffffffffffffffffffffff16908060040154908060050160009054906101000a900460ff1690806006015490806007018054610db490612557565b80601f0160208091040260200160405190810160405280929190818152602001828054610de090612557565b8015610e2d5780601f10610e0257610100808354040283529160200191610e2d565b820191906000526020600020905b815481529060010190602001808311610e1057829003601f168201915b5050505050905088565b60018060000154905081565b60606006805480602002602001604051908101604052809291908181526020018280548015610ec757602002820191906000526020600020905b8160009054906101000a900473ffffffffffffffffffffffffffffffffffffffff1673ffffffffffffffffffffffffffffffffffffffff1681526020019060010190808311610e7d575b5050505050905090565b60608060006060600060606000600460008973ffffffffffffffffffffffffffffffffffffffff1673ffffffffffffffffffffffffffffffffffffffff168152602001908152602001600020600101600460008a73ffffffffffffffffffffffffffffffffffffffff1673ffffffffffffffffffffffffffffffffffffffff168152602001908152602001600020600201600460008b73ffffffffffffffffffffffffffffffffffffffff1673ffffffffffffffffffffffffffffffffffffffff16815260200190815260200160002060000154600460008c73ffffffffffffffffffffffffffffffffffffffff1673ffffffffffffffffffffffffffffffffffffffff168152602001908152602001600020600301600460008d73ffffffffffffffffffffffffffffffffffffffff1673ffffffffffffffffffffffffffffffffffffffff16815260200190815260200160002060040154600460008e73ffffffffffffffffffffffffffffffffffffffff1673ffffffffffffffffffffffffffffffffffffffff168152602001908152602001600020600601600460008f73ffffffffffffffffffffffffffffffffffffffff1673ffffffffffffffffffffffffffffffffffffffff16815260200190815260200160002060050160009054906101000a900473ffffffffffffffffffffffffffffffffffffffff168680546110db90612557565b80601f016020809104026020016040519081016040528092919081815260200182805461110790612557565b80156111545780601f1061112957610100808354040283529160200191611154565b820191906000526020600020905b81548152906001019060200180831161113757829003601f168201915b5050505050965085805461116790612557565b80601f016020809104026020016040519081016040528092919081815260200182805461119390612557565b80156111e05780601f106111b5576101008083540402835291602001916111e0565b820191906000526020600020905b8154815290600101906020018083116111c357829003601f168201915b505050505095508380546111f390612557565b80601f016020809104026020016040519081016040528092919081815260200182805461121f90612557565b801561126c5780601f106112415761010080835404028352916020019161126c565b820191906000526020600020905b81548152906001019060200180831161124f57829003601f168201915b5050505050935081805461127f90612557565b80601f01602080910402602001604051908101604052809291908181526020018280546112ab90612557565b80156112f85780601f106112cd576101008083540402835291602001916112f8565b820191906000526020600020905b8154815290600101906020018083116112db57829003601f168201915b505050505091509650965096509650965096509650919395979092949650565b60008060000154905081565b600060608060006060600080600760008973ffffffffffffffffffffffffffffffffffffffff1673ffffffffffffffffffffffffffffffffffffffff16815260200190815260200160002060000154600760008a73ffffffffffffffffffffffffffffffffffffffff1673ffffffffffffffffffffffffffffffffffffffff168152602001908152602001600020600101600760008b73ffffffffffffffffffffffffffffffffffffffff1673ffffffffffffffffffffffffffffffffffffffff168152602001908152602001600020600201600760008c73ffffffffffffffffffffffffffffffffffffffff1673ffffffffffffffffffffffffffffffffffffffff16815260200190815260200160002060030160009054906101000a900473ffffffffffffffffffffffffffffffffffffffff16600760008d73ffffffffffffffffffffffffffffffffffffffff1673ffffffffffffffffffffffffffffffffffffffff168152602001908152602001600020600701600760008e73ffffffffffffffffffffffffffffffffffffffff1673ffffffffffffffffffffffffffffffffffffffff16815260200190815260200160002060040154600760008f73ffffffffffffffffffffffffffffffffffffffff1673ffffffffffffffffffffffffffffffffffffffff16815260200190815260200160002060050160009054906101000a900460ff1685805461153b90612557565b80601f016020809104026020016040519081016040528092919081815260200182805461156790612557565b80156115b45780601f10611589576101008083540402835291602001916115b4565b820191906000526020600020905b81548152906001019060200180831161159757829003601f168201915b505050505095508480546115c790612557565b80601f01602080910402602001604051908101604052809291908181526020018280546115f390612557565b80156116405780601f1061161557610100808354040283529160200191611640565b820191906000526020600020905b81548152906001019060200180831161162357829003601f168201915b5050505050945082805461165390612557565b80601f016020809104026020016040519081016040528092919081815260200182805461167f90612557565b80156116cc5780601f106116a1576101008083540402835291602001916116cc565b820191906000526020600020905b8154815290600101906020018083116116af57829003601f168201915b505050505092509650965096509650965096509650919395979092949650565b3373ffffffffffffffffffffffffffffffffffffffff16600260009054906101000a900473ffffffffffffffffffffffffffffffffffffffff1673ffffffffffffffffffffffffffffffffffffffff161461177c576040517f08c379a0000000000000000000000000000000000000000000000000000000008152600401611773906125fb565b60405180910390fd5b6117866001611950565b60006117926001611966565b90506000600460008873ffffffffffffffffffffffffffffffffffffffff1673ffffffffffffffffffffffffffffffffffffffff1681526020019081526020016000209050858160010190805190602001906117ef929190611974565b5084816002019080519060200190611808929190611974565b508181600001819055508381600301908051906020019061182a929190611974565b5060008160040181905550868160050160006101000a81548173ffffffffffffffffffffffffffffffffffffffff021916908373ffffffffffffffffffffffffffffffffffffffff16021790555082816006019080519060200190611890929190611974565b506003879080600181540180825580915050600190039060005260206000200160009091909190916101000a81548173ffffffffffffffffffffffffffffffffffffffff021916908373ffffffffffffffffffffffffffffffffffffffff160217905550817fd297f12b256bb8485a6013fb5e302017018123e99a0ebb20756c09e1707b4b9087878785600401548c896040516119329695949392919061261b565b60405180910390a250505050505050565b6000600380549050905090565b6001816000016000828254019250508190555050565b600081600001549050919050565b82805461198090612557565b90600052602060002090601f0160209004810192826119a257600085556119e9565b82601f106119bb57805160ff19168380011785556119e9565b828001600101855582156119e9579182015b828111156119e85782518255916020019190600101906119cd565b5b5090506119f691906119fa565b5090565b5b80821115611a135760008160009055506001016119fb565b5090565b6000819050919050565b611a2a81611a17565b82525050565b6000602082019050611a456000830184611a21565b92915050565b6000604051905090565b600080fd5b600080fd5b611a6881611a17565b8114611a7357600080fd5b50565b600081359050611a8581611a5f565b92915050565b600060208284031215611aa157611aa0611a55565b5b6000611aaf84828501611a76565b91505092915050565b600073ffffffffffffffffffffffffffffffffffffffff82169050919050565b6000611ae382611ab8565b9050919050565b611af381611ad8565b82525050565b6000602082019050611b0e6000830184611aea565b92915050565b611b1d81611ad8565b8114611b2857600080fd5b50565b600081359050611b3a81611b14565b92915050565b60008060408385031215611b5757611b56611a55565b5b6000611b6585828601611b2b565b9250506020611b7685828601611a76565b9150509250929050565b600080fd5b600080fd5b6000601f19601f8301169050919050565b7f4e487b7100000000000000000000000000000000000000000000000000000000600052604160045260246000fd5b611bd382611b8a565b810181811067ffffffffffffffff82111715611bf257611bf1611b9b565b5b80604052505050565b6000611c05611a4b565b9050611c118282611bca565b919050565b600067ffffffffffffffff821115611c3157611c30611b9b565b5b611c3a82611b8a565b9050602081019050919050565b82818337600083830152505050565b6000611c69611c6484611c16565b611bfb565b905082815260208101848484011115611c8557611c84611b85565b5b611c90848285611c47565b509392505050565b600082601f830112611cad57611cac611b80565b5b8135611cbd848260208601611c56565b91505092915050565b60008060008060808587031215611ce057611cdf611a55565b5b6000611cee87828801611b2b565b945050602085013567ffffffffffffffff811115611d0f57611d0e611a5a565b5b611d1b87828801611c98565b935050604085013567ffffffffffffffff811115611d3c57611d3b611a5a565b5b611d4887828801611c98565b925050606085013567ffffffffffffffff811115611d6957611d68611a5a565b5b611d7587828801611c98565b91505092959194509250565b600081519050919050565b600082825260208201905092915050565b6000819050602082019050919050565b611db681611ad8565b82525050565b6000611dc88383611dad565b60208301905092915050565b6000602082019050919050565b6000611dec82611d81565b611df68185611d8c565b9350611e0183611d9d565b8060005b83811015611e32578151611e198882611dbc565b9750611e2483611dd4565b925050600181019050611e05565b5085935050505092915050565b60006020820190508181036000830152611e598184611de1565b905092915050565b600060208284031215611e7757611e76611a55565b5b6000611e8584828501611b2b565b91505092915050565b600081519050919050565b600082825260208201905092915050565b60005b83811015611ec8578082015181840152602081019050611ead565b83811115611ed7576000848401525b50505050565b6000611ee882611e8e565b611ef28185611e99565b9350611f02818560208601611eaa565b611f0b81611b8a565b840191505092915050565b600060e082019050611f2b600083018a611a21565b8181036020830152611f3d8189611edd565b90508181036040830152611f518188611edd565b90508181036060830152611f658187611edd565b9050611f746080830186611a21565b611f8160a0830185611aea565b81810360c0830152611f938184611edd565b905098975050505050505050565b60008115159050919050565b611fb681611fa1565b82525050565b600061010082019050611fd2600083018b611a21565b8181036020830152611fe4818a611edd565b90508181036040830152611ff88189611edd565b90506120076060830188611aea565b6120146080830187611a21565b61202160a0830186611fad565b61202e60c0830185611a21565b81810360e08301526120408184611edd565b90509998505050505050505050565b600060e0820190508181036000830152612069818a611edd565b9050818103602083015261207d8189611edd565b905061208c6040830188611a21565b818103606083015261209e8187611edd565b90506120ad6080830186611a21565b81810360a08301526120bf8185611edd565b90506120ce60c0830184611aea565b98975050505050505050565b600060e0820190506120ef600083018a611a21565b81810360208301526121018189611edd565b905081810360408301526121158188611edd565b90506121246060830187611aea565b81810360808301526121368186611edd565b905061214560a0830185611a21565b61215260c0830184611fad565b98975050505050505050565b600080600080600060a0868803121561217a57612179611a55565b5b600061218888828901611b2b565b955050602086013567ffffffffffffffff8111156121a9576121a8611a5a565b5b6121b588828901611c98565b945050604086013567ffffffffffffffff8111156121d6576121d5611a5a565b5b6121e288828901611c98565b935050606086013567ffffffffffffffff81111561220357612202611a5a565b5b61220f88828901611c98565b925050608086013567ffffffffffffffff8111156122305761222f611a5a565b5b61223c88828901611c98565b9150509295509295909350565b7f596f75206861766520616c726561647920766f74656400000000000000000000600082015250565b600061227f601683611e99565b915061228a82612249565b602082019050919050565b600060208201905081810360008301526122ae81612272565b9050919050565b7f596f752068617665206e6f20726967746820746f20766f746500000000000000600082015250565b60006122eb601983611e99565b91506122f6826122b5565b602082019050919050565b6000602082019050818103600083015261231a816122de565b9050919050565b7f4e487b7100000000000000000000000000000000000000000000000000000000600052601160045260246000fd5b600061235b82611a17565b915061236683611a17565b9250827fffffffffffffffffffffffffffffffffffffffffffffffffffffffffffffffff0382111561239b5761239a612321565b5b828201905092915050565b7f4f6e6c79204f7267616e697a65722063616e206372656174652074686520766f60008201527f7465720000000000000000000000000000000000000000000000000000000000602082015250565b6000612402602383611e99565b915061240d826123a6565b604082019050919050565b60006020820190508181036000830152612431816123f5565b9050919050565b7f566f74657220616c726561647920657869737473000000000000000000000000600082015250565b600061246e601483611e99565b915061247982612438565b602082019050919050565b6000602082019050818103600083015261249d81612461565b9050919050565b600060e08201905081810360008301526124be818a611edd565b905081810360208301526124d28189611edd565b90506124e16040830188611aea565b6124ee6060830187611a21565b6124fb6080830186611fad565b61250860a0830185611a21565b81810360c083015261251a8184611edd565b905098975050505050505050565b7f4e487b7100000000000000000000000000000000000000000000000000000000600052602260045260246000fd5b6000600282049050600182168061256f57607f821691505b6020821081141561258357612582612528565b5b50919050565b7f4f6e6c79206f7267616e697a65722063616e2063726561746520612063616e6460008201527f6964617465000000000000000000000000000000000000000000000000000000602082015250565b60006125e5602583611e99565b91506125f082612589565b604082019050919050565b60006020820190508181036000830152612614816125d8565b9050919050565b600060c08201905081810360008301526126358189611edd565b905081810360208301526126498188611edd565b9050818103604083015261265d8187611edd565b905061266c6060830186611a21565b6126796080830185611aea565b81810360a083015261268b8184611edd565b905097965050505050505056fea264697066735822122096f92e2631d94ad38a587ce77c1aa65b793c9368bce7f5d48cbd54a0127486fc64736f6c63430008090033",
  "linkReferences": {},
  "deployedLinkReferences": {}
}