{
  "_format": "hh-sol-artifact-1",
  "contractName": "Create",
  "sourceName": "contracts/VotingContract.sol",
  "abi": [
    {
      "inputs": [],
      "stateMutability": "nonpayable",
      "type": "constructor"
    },
    {
      "anonymous": false,
      "inputs": [
        {
          "indexed": true,
          "internalType": "uint256",
          "name": "candidateId",
          "type": "uint256"
        },
        {
          "indexed": false,
          "internalType": "string",
          "name": "age",
          "type": "string"
        },
        {
          "indexed": false,
          "internalType": "string",
          "name": "name",
          "type": "string"
        },
        {
          "indexed": false,
          "internalType": "string",
          "name": "image",
          "type": "string"
        },
        {
          "indexed": false,
          "internalType": "uint256",
          "name": "voteCount",
          "type": "uint256"
        },
        {
          "indexed": false,
          "internalType": "address",
          "name": "_address",
          "type": "address"
        },
        {
          "indexed": false,
          "internalType": "string",
          "name": "ipfs",
          "type": "string"
        }
      ],
      "name": "CandidateCreate",
      "type": "event"
    },
    {
      "anonymous": false,
      "inputs": [
        {
          "indexed": true,
          "internalType": "uint256",
          "name": "voter_voterId",
          "type": "uint256"
        },
        {
          "indexed": false,
          "internalType": "string",
          "name": "voter_name",
          "type": "string"
        },
        {
          "indexed": false,
          "internalType": "string",
          "name": "voter_image",
          "type": "string"
        },
        {
          "indexed": false,
          "internalType": "address",
          "name": "voter_address",
          "type": "address"
        },
        {
          "indexed": false,
          "internalType": "uint256",
          "name": "voter_allowed",
          "type": "uint256"
        },
        {
          "indexed": false,
          "internalType": "bool",
          "name": "voter_voted",
          "type": "bool"
        },
        {
          "indexed": false,
          "internalType": "uint256",
          "name": "voter_vote",
          "type": "uint256"
        },
        {
          "indexed": false,
          "internalType": "string",
          "name": "voter_ipfs",
          "type": "string"
        }
      ],
      "name": "VoterCreated",
      "type": "event"
    },
    {
      "inputs": [],
      "name": "_candidateId",
      "outputs": [
        {
          "internalType": "uint256",
          "name": "_value",
          "type": "uint256"
        }
      ],
      "stateMutability": "view",
      "type": "function"
    },
    {
      "inputs": [],
      "name": "_voterId",
      "outputs": [
        {
          "internalType": "uint256",
          "name": "_value",
          "type": "uint256"
        }
      ],
      "stateMutability": "view",
      "type": "function"
    },
    {
      "inputs": [
        {
          "internalType": "uint256",
          "name": "",
          "type": "uint256"
        }
      ],
      "name": "candidateAddress",
      "outputs": [
        {
          "internalType": "address",
          "name": "",
          "type": "address"
        }
      ],
      "stateMutability": "view",
      "type": "function"
    },
    {
      "inputs": [
        {
          "internalType": "address",
          "name": "",
          "type": "address"
        }
      ],
      "name": "candidates",
      "outputs": [
        {
          "internalType": "uint256",
          "name": "candidateId",
          "type": "uint256"
        },
        {
          "internalType": "string",
          "name": "age",
          "type": "string"
        },
        {
          "internalType": "string",
          "name": "name",
          "type": "string"
        },
        {
          "internalType": "string",
          "name": "image",
          "type": "string"
        },
        {
          "internalType": "uint256",
          "name": "voteCount",
          "type": "uint256"
        },
        {
          "internalType": "address",
          "name": "_address",
          "type": "address"
        },
        {
          "internalType": "string",
          "name": "ipfs",
          "type": "string"
        }
      ],
      "stateMutability": "view",
      "type": "function"
    },
    {
      "inputs": [],
      "name": "getCandidate",
      "outputs": [
        {
          "internalType": "address[]",
          "name": "",
          "type": "address[]"
        }
      ],
      "stateMutability": "view",
      "type": "function"
    },
    {
      "inputs": [],
      "name": "getCandidateLength",
      "outputs": [
        {
          "internalType": "uint256",
          "name": "",
          "type": "uint256"
        }
      ],
      "stateMutability": "view",
      "type": "function"
    },
    {
      "inputs": [
        {
          "internalType": "address",
          "name": "_address",
          "type": "address"
        }
      ],
      "name": "getCandidatedata",
      "outputs": [
        {
          "internalType": "string",
          "name": "",
          "type": "string"
        },
        {
          "internalType": "string",
          "name": "",
          "type": "string"
        },
        {
          "internalType": "uint256",
          "name": "",
          "type": "uint256"
        },
        {
          "internalType": "string",
          "name": "",
          "type": "string"
        },
        {
          "internalType": "uint256",
          "name": "",
          "type": "uint256"
        },
        {
          "internalType": "string",
          "name": "",
          "type": "string"
        },
        {
          "internalType": "address",
          "name": "",
          "type": "address"
        }
      ],
      "stateMutability": "view",
      "type": "function"
    },
    {
      "inputs": [],
      "name": "getVoterLength",
      "outputs": [
        {
          "internalType": "uint256",
          "name": "",
          "type": "uint256"
        }
      ],
      "stateMutability": "view",
      "type": "function"
    },
    {
      "inputs": [],
      "name": "getVoterList",
      "outputs": [
        {
          "internalType": "address[]",
          "name": "",
          "type": "address[]"
        }
      ],
      "stateMutability": "view",
      "type": "function"
    },
    {
      "inputs": [
        {
          "internalType": "address",
          "name": "_address",
          "type": "address"
        }
      ],
      "name": "getVoterdata",
      "outputs": [
        {
          "internalType": "uint256",
          "name": "",
          "type": "uint256"
        },
        {
          "internalType": "string",
          "name": "",
          "type": "string"
        },
        {
          "internalType": "string",
          "name": "",
          "type": "string"
        },
        {
          "internalType": "address",
          "name": "",
          "type": "address"
        },
        {
          "internalType": "string",
          "name": "",
          "type": "string"
        },
        {
          "internalType": "uint256",
          "name": "",
          "type": "uint256"
        },
        {
          "internalType": "bool",
          "name": "",
          "type": "bool"
        }
      ],
      "stateMutability": "view",
      "type": "function"
    },
    {
      "inputs": [
        {
          "internalType": "address",
          "name": "_address",
          "type": "address"
        },
        {
          "internalType": "string",
          "name": "_age",
          "type": "string"
        },
        {
          "internalType": "string",
          "name": "_name",
          "type": "string"
        },
        {
          "internalType": "string",
          "name": "_image",
          "type": "string"
        },
        {
          "internalType": "string",
          "name": "_ipfs",
          "type": "string"
        }
      ],
      "name": "setCandidate",
      "outputs": [],
      "stateMutability": "nonpayable",
      "type": "function"
    },
    {
      "inputs": [
        {
          "internalType": "address",
          "name": "_candidateAddress",
          "type": "address"
        },
        {
          "internalType": "uint256",
          "name": "_candidateVoteId",
          "type": "uint256"
        }
      ],
      "name": "vote",
      "outputs": [],
      "stateMutability": "nonpayable",
      "type": "function"
    },
    {
      "inputs": [
        {
          "internalType": "uint256",
          "name": "",
          "type": "uint256"
        }
      ],
      "name": "votedVoters",
      "outputs": [
        {
          "internalType": "address",
          "name": "",
          "type": "address"
        }
      ],
      "stateMutability": "view",
      "type": "function"
    },
    {
      "inputs": [
        {
          "internalType": "address",
          "name": "_address",
          "type": "address"
        },
        {
          "internalType": "string",
          "name": "_name",
          "type": "string"
        },
        {
          "internalType": "string",
          "name": "_image",
          "type": "string"
        },
        {
          "internalType": "string",
          "name": "_ipfs",
          "type": "string"
        }
      ],
      "name": "voterRight",
      "outputs": [],
      "stateMutability": "nonpayable",
      "type": "function"
    },
    {
      "inputs": [
        {
          "internalType": "address",
          "name": "",
          "type": "address"
        }
      ],
      "name": "voters",
      "outputs": [
        {
          "internalType": "uint256",
          "name": "voter_voterId",
          "type": "uint256"
        },
        {
          "internalType": "string",
          "name": "voter_name",
          "type": "string"
        },
        {
          "internalType": "string",
          "name": "voter_image",
          "type": "string"
        },
        {
          "internalType": "address",
          "name": "voter_address",
          "type": "address"
        },
        {
          "internalType": "uint256",
          "name": "voter_allowed",
          "type": "uint256"
        },
        {
          "internalType": "bool",
          "name": "voter_voted",
          "type": "bool"
        },
        {
          "internalType": "uint256",
          "name": "voter_vote",
          "type": "uint256"
        },
        {
          "internalType": "string",
          "name": "voter_ipfs",
          "type": "string"
        }
      ],
      "stateMutability": "view",
      "type": "function"
    },
    {
      "inputs": [
        {
          "internalType": "uint256",
          "name": "",
          "type": "uint256"
        }
      ],
      "name": "votersAddress",
      "outputs": [
        {
          "internalType": "address",
          "name": "",
          "type": "address"
        }
      ],
      "stateMutability": "view",
      "type": "function"
    },
    {
      "inputs": [],
      "name": "votingOrganizer",
      "outputs": [
        {
          "internalType": "address",
          "name": "",
          "type": "address"
        }
      ],
      "stateMutability": "view",
      "type": "function"
    }
  ],
  "bytecode": "0x608060405234801561001057600080fd5b5033600260006101000a81548173ffffffffffffffffffffffffffffffffffffffff021916908373ffffffffffffffffffffffffffffffffffffffff160217905550612782806100616000396000f3fe608060405234801561001057600080fd5b506004361061010b5760003560e01c80638ab66a90116100a2578063b63c82ca11610071578063b63c82ca146102db578063b9be315214610311578063c5036fd41461032f578063c91ec71214610365578063f7522a83146103815761010b565b80638ab66a9014610232578063a3ec138d14610268578063a73889671461029f578063b28d92ae146102bd5761010b565b80635cc48aa7116100de5780635cc48aa7146101aa5780635f74bbde146101c857806370218b85146101e45780637831ffb3146102025761010b565b80630361419e1461011057806305ad45a41461012c5780633a88251a1461014a57806343242daa1461017a575b600080fd5b61012a60048036038101906101259190611c17565b61039f565b005b610134610662565b6040516101419190611ceb565b60405180910390f35b610164600480360381019061015f9190611d32565b61066f565b6040516101719190611d6e565b60405180910390f35b610194600480360381019061018f9190611d32565b6106ae565b6040516101a19190611d6e565b60405180910390f35b6101b26106ed565b6040516101bf9190611d6e565b60405180910390f35b6101e260048036038101906101dd9190611d89565b610713565b005b6101ec6108db565b6040516101f99190611e87565b60405180910390f35b61021c60048036038101906102179190611d32565b610969565b6040516102299190611d6e565b60405180910390f35b61024c60048036038101906102479190611ea9565b6109a8565b60405161025f9796959493929190611f5e565b60405180910390f35b610282600480360381019061027d9190611ea9565b610c2a565b604051610296989796959493929190612004565b60405180910390f35b6102a7610e37565b6040516102b49190611ceb565b60405180910390f35b6102c5610e43565b6040516102d29190611e87565b60405180910390f35b6102f560048036038101906102f09190611ea9565b610f19565b6040516103089796959493929190612097565b60405180910390f35b610319611360565b6040516103269190611ceb565b60405180910390f35b61034960048036038101906103449190611ea9565b61136c565b60405161035c9796959493929190612122565b60405180910390f35b61037f600480360381019061037a91906121a6565b611734565b005b61038961198b565b6040516103969190611ceb565b60405180910390f35b3373ffffffffffffffffffffffffffffffffffffffff16600260009054906101000a900473ffffffffffffffffffffffffffffffffffffffff1673ffffffffffffffffffffffffffffffffffffffff161461042f576040517f08c379a000000000000000000000000000000000000000000000000000000000815260040161042690612303565b60405180910390fd5b6104396000611998565b600061044560006119ae565b90506000600760008773ffffffffffffffffffffffffffffffffffffffff1673ffffffffffffffffffffffffffffffffffffffff168152602001908152602001600020905060008160040154146104d1576040517f08c379a00000000000000000000000000000000000000000000000000000000081526004016104c89061236f565b60405180910390fd5b60018160040181905550848160010190805190602001906104f39291906119bc565b508381600201908051906020019061050c9291906119bc565b50858160030160006101000a81548173ffffffffffffffffffffffffffffffffffffffff021916908373ffffffffffffffffffffffffffffffffffffffff1602179055508181600001819055506103e8816006018190555060008160050160006101000a81548160ff021916908315150217905550828160070190805190602001906105999291906119bc565b506006869080600181540180825580915050600190039060005260206000200160009091909190916101000a81548173ffffffffffffffffffffffffffffffffffffffff021916908373ffffffffffffffffffffffffffffffffffffffff160217905550817ff5f39971dd62d9929e3a9feaa6bb77fe7c7da0001babff8a65a7e51ad0201c1986868985600401548660050160009054906101000a900460ff1687600601548a604051610652979695949392919061238f565b60405180910390a2505050505050565b6000600680549050905090565b6003818154811061067f57600080fd5b906000526020600020016000915054906101000a900473ffffffffffffffffffffffffffffffffffffffff1681565b600681815481106106be57600080fd5b906000526020600020016000915054906101000a900473ffffffffffffffffffffffffffffffffffffffff1681565b600260009054906101000a900473ffffffffffffffffffffffffffffffffffffffff1681565b6000600760003373ffffffffffffffffffffffffffffffffffffffff1673ffffffffffffffffffffffffffffffffffffffff16815260200190815260200160002090508060050160009054906101000a900460ff16156107a8576040517f08c379a000000000000000000000000000000000000000000000000000000000815260040161079f9061245f565b60405180910390fd5b6000816004015414156107f0576040517f08c379a00000000000000000000000000000000000000000000000000000000081526004016107e7906124cb565b60405180910390fd5b60018160050160006101000a81548160ff0219169083151502179055508181600601819055506005339080600181540180825580915050600190039060005260206000200160009091909190916101000a81548173ffffffffffffffffffffffffffffffffffffffff021916908373ffffffffffffffffffffffffffffffffffffffff1602179055508060040154600460008573ffffffffffffffffffffffffffffffffffffffff1673ffffffffffffffffffffffffffffffffffffffff16815260200190815260200160002060040160008282546108cf919061251a565b92505081905550505050565b6060600380548060200260200160405190810160405280929190818152602001828054801561095f57602002820191906000526020600020905b8160009054906101000a900473ffffffffffffffffffffffffffffffffffffffff1673ffffffffffffffffffffffffffffffffffffffff1681526020019060010190808311610915575b5050505050905090565b6005818154811061097957600080fd5b906000526020600020016000915054906101000a900473ffffffffffffffffffffffffffffffffffffffff1681565b60046020528060005260406000206000915090508060000154908060010180546109d19061259f565b80601f01602080910402602001604051908101604052809291908181526020018280546109fd9061259f565b8015610a4a5780601f10610a1f57610100808354040283529160200191610a4a565b820191906000526020600020905b815481529060010190602001808311610a2d57829003601f168201915b505050505090806002018054610a5f9061259f565b80601f0160208091040260200160405190810160405280929190818152602001828054610a8b9061259f565b8015610ad85780601f10610aad57610100808354040283529160200191610ad8565b820191906000526020600020905b815481529060010190602001808311610abb57829003601f168201915b505050505090806003018054610aed9061259f565b80601f0160208091040260200160405190810160405280929190818152602001828054610b199061259f565b8015610b665780601f10610b3b57610100808354040283529160200191610b66565b820191906000526020600020905b815481529060010190602001808311610b4957829003601f168201915b5050505050908060040154908060050160009054906101000a900473ffffffffffffffffffffffffffffffffffffffff1690806006018054610ba79061259f565b80601f0160208091040260200160405190810160405280929190818152602001828054610bd39061259f565b8015610c205780601f10610bf557610100808354040283529160200191610c20565b820191906000526020600020905b815481529060010190602001808311610c0357829003601f168201915b5050505050905087565b6007602052806000526040600020600091509050806000015490806001018054610c539061259f565b80601f0160208091040260200160405190810160405280929190818152602001828054610c7f9061259f565b8015610ccc5780601f10610ca157610100808354040283529160200191610ccc565b820191906000526020600020905b815481529060010190602001808311610caf57829003601f168201915b505050505090806002018054610ce19061259f565b80601f0160208091040260200160405190810160405280929190818152602001828054610d0d9061259f565b8015610d5a5780601f10610d2f57610100808354040283529160200191610d5a565b820191906000526020600020905b815481529060010190602001808311610d3d57829003601f168201915b5050505050908060030160009054906101000a900473ffffffffffffffffffffffffffffffffffffffff16908060040154908060050160009054906101000a900460ff1690806006015490806007018054610db49061259f565b80601f0160208091040260200160405190810160405280929190818152602001828054610de09061259f565b8015610e2d5780601f10610e0257610100808354040283529160200191610e2d565b820191906000526020600020905b815481529060010190602001808311610e1057829003601f168201915b5050505050905088565b60018060000154905081565b6060600060068054905011610e8d576040517f08c379a0000000000000000000000000000000000000000000000000000000008152600401610e849061261d565b60405180910390fd5b6006805480602002602001604051908101604052809291908181526020018280548015610f0f57602002820191906000526020600020905b8160009054906101000a900473ffffffffffffffffffffffffffffffffffffffff1673ffffffffffffffffffffffffffffffffffffffff1681526020019060010190808311610ec5575b5050505050905090565b60608060006060600060606000600460008973ffffffffffffffffffffffffffffffffffffffff1673ffffffffffffffffffffffffffffffffffffffff168152602001908152602001600020600101600460008a73ffffffffffffffffffffffffffffffffffffffff1673ffffffffffffffffffffffffffffffffffffffff168152602001908152602001600020600201600460008b73ffffffffffffffffffffffffffffffffffffffff1673ffffffffffffffffffffffffffffffffffffffff16815260200190815260200160002060000154600460008c73ffffffffffffffffffffffffffffffffffffffff1673ffffffffffffffffffffffffffffffffffffffff168152602001908152602001600020600301600460008d73ffffffffffffffffffffffffffffffffffffffff1673ffffffffffffffffffffffffffffffffffffffff16815260200190815260200160002060040154600460008e73ffffffffffffffffffffffffffffffffffffffff1673ffffffffffffffffffffffffffffffffffffffff168152602001908152602001600020600601600460008f73ffffffffffffffffffffffffffffffffffffffff1673ffffffffffffffffffffffffffffffffffffffff16815260200190815260200160002060050160009054906101000a900473ffffffffffffffffffffffffffffffffffffffff168680546111239061259f565b80601f016020809104026020016040519081016040528092919081815260200182805461114f9061259f565b801561119c5780601f106111715761010080835404028352916020019161119c565b820191906000526020600020905b81548152906001019060200180831161117f57829003601f168201915b505050505096508580546111af9061259f565b80601f01602080910402602001604051908101604052809291908181526020018280546111db9061259f565b80156112285780601f106111fd57610100808354040283529160200191611228565b820191906000526020600020905b81548152906001019060200180831161120b57829003601f168201915b5050505050955083805461123b9061259f565b80601f01602080910402602001604051908101604052809291908181526020018280546112679061259f565b80156112b45780601f10611289576101008083540402835291602001916112b4565b820191906000526020600020905b81548152906001019060200180831161129757829003601f168201915b505050505093508180546112c79061259f565b80601f01602080910402602001604051908101604052809291908181526020018280546112f39061259f565b80156113405780601f1061131557610100808354040283529160200191611340565b820191906000526020600020905b81548152906001019060200180831161132357829003601f168201915b505050505091509650965096509650965096509650919395979092949650565b60008060000154905081565b600060608060006060600080600760008973ffffffffffffffffffffffffffffffffffffffff1673ffffffffffffffffffffffffffffffffffffffff16815260200190815260200160002060000154600760008a73ffffffffffffffffffffffffffffffffffffffff1673ffffffffffffffffffffffffffffffffffffffff168152602001908152602001600020600101600760008b73ffffffffffffffffffffffffffffffffffffffff1673ffffffffffffffffffffffffffffffffffffffff168152602001908152602001600020600201600760008c73ffffffffffffffffffffffffffffffffffffffff1673ffffffffffffffffffffffffffffffffffffffff16815260200190815260200160002060030160009054906101000a900473ffffffffffffffffffffffffffffffffffffffff16600760008d73ffffffffffffffffffffffffffffffffffffffff1673ffffffffffffffffffffffffffffffffffffffff168152602001908152602001600020600701600760008e73ffffffffffffffffffffffffffffffffffffffff1673ffffffffffffffffffffffffffffffffffffffff16815260200190815260200160002060040154600760008f73ffffffffffffffffffffffffffffffffffffffff1673ffffffffffffffffffffffffffffffffffffffff16815260200190815260200160002060050160009054906101000a900460ff168580546115839061259f565b80601f01602080910402602001604051908101604052809291908181526020018280546115af9061259f565b80156115fc5780601f106115d1576101008083540402835291602001916115fc565b820191906000526020600020905b8154815290600101906020018083116115df57829003601f168201915b5050505050955084805461160f9061259f565b80601f016020809104026020016040519081016040528092919081815260200182805461163b9061259f565b80156116885780601f1061165d57610100808354040283529160200191611688565b820191906000526020600020905b81548152906001019060200180831161166b57829003601f168201915b5050505050945082805461169b9061259f565b80601f01602080910402602001604051908101604052809291908181526020018280546116c79061259f565b80156117145780601f106116e957610100808354040283529160200191611714565b820191906000526020600020905b8154815290600101906020018083116116f757829003601f168201915b505050505092509650965096509650965096509650919395979092949650565b3373ffffffffffffffffffffffffffffffffffffffff16600260009054906101000a900473ffffffffffffffffffffffffffffffffffffffff1673ffffffffffffffffffffffffffffffffffffffff16146117c4576040517f08c379a00000000000000000000000000000000000000000000000000000000081526004016117bb906126af565b60405180910390fd5b6117ce6001611998565b60006117da60016119ae565b90506000600460008873ffffffffffffffffffffffffffffffffffffffff1673ffffffffffffffffffffffffffffffffffffffff1681526020019081526020016000209050858160010190805190602001906118379291906119bc565b50848160020190805190602001906118509291906119bc565b50818160000181905550838160030190805190602001906118729291906119bc565b5060008160040181905550868160050160006101000a81548173ffffffffffffffffffffffffffffffffffffffff021916908373ffffffffffffffffffffffffffffffffffffffff160217905550828160060190805190602001906118d89291906119bc565b506003879080600181540180825580915050600190039060005260206000200160009091909190916101000a81548173ffffffffffffffffffffffffffffffffffffffff021916908373ffffffffffffffffffffffffffffffffffffffff160217905550817fd297f12b256bb8485a6013fb5e302017018123e99a0ebb20756c09e1707b4b9087878785600401548c8960405161197a969594939291906126cf565b60405180910390a250505050505050565b6000600380549050905090565b6001816000016000828254019250508190555050565b600081600001549050919050565b8280546119c89061259f565b90600052602060002090601f0160209004810192826119ea5760008555611a31565b82601f10611a0357805160ff1916838001178555611a31565b82800160010185558215611a31579182015b82811115611a30578251825591602001919060010190611a15565b5b509050611a3e9190611a42565b5090565b5b80821115611a5b576000816000905550600101611a43565b5090565b6000604051905090565b600080fd5b600080fd5b600073ffffffffffffffffffffffffffffffffffffffff82169050919050565b6000611a9e82611a73565b9050919050565b611aae81611a93565b8114611ab957600080fd5b50565b600081359050611acb81611aa5565b92915050565b600080fd5b600080fd5b6000601f19601f8301169050919050565b7f4e487b7100000000000000000000000000000000000000000000000000000000600052604160045260246000fd5b611b2482611adb565b810181811067ffffffffffffffff82111715611b4357611b42611aec565b5b80604052505050565b6000611b56611a5f565b9050611b628282611b1b565b919050565b600067ffffffffffffffff821115611b8257611b81611aec565b5b611b8b82611adb565b9050602081019050919050565b82818337600083830152505050565b6000611bba611bb584611b67565b611b4c565b905082815260208101848484011115611bd657611bd5611ad6565b5b611be1848285611b98565b509392505050565b600082601f830112611bfe57611bfd611ad1565b5b8135611c0e848260208601611ba7565b91505092915050565b60008060008060808587031215611c3157611c30611a69565b5b6000611c3f87828801611abc565b945050602085013567ffffffffffffffff811115611c6057611c5f611a6e565b5b611c6c87828801611be9565b935050604085013567ffffffffffffffff811115611c8d57611c8c611a6e565b5b611c9987828801611be9565b925050606085013567ffffffffffffffff811115611cba57611cb9611a6e565b5b611cc687828801611be9565b91505092959194509250565b6000819050919050565b611ce581611cd2565b82525050565b6000602082019050611d006000830184611cdc565b92915050565b611d0f81611cd2565b8114611d1a57600080fd5b50565b600081359050611d2c81611d06565b92915050565b600060208284031215611d4857611d47611a69565b5b6000611d5684828501611d1d565b91505092915050565b611d6881611a93565b82525050565b6000602082019050611d836000830184611d5f565b92915050565b60008060408385031215611da057611d9f611a69565b5b6000611dae85828601611abc565b9250506020611dbf85828601611d1d565b9150509250929050565b600081519050919050565b600082825260208201905092915050565b6000819050602082019050919050565b611dfe81611a93565b82525050565b6000611e108383611df5565b60208301905092915050565b6000602082019050919050565b6000611e3482611dc9565b611e3e8185611dd4565b9350611e4983611de5565b8060005b83811015611e7a578151611e618882611e04565b9750611e6c83611e1c565b925050600181019050611e4d565b5085935050505092915050565b60006020820190508181036000830152611ea18184611e29565b905092915050565b600060208284031215611ebf57611ebe611a69565b5b6000611ecd84828501611abc565b91505092915050565b600081519050919050565b600082825260208201905092915050565b60005b83811015611f10578082015181840152602081019050611ef5565b83811115611f1f576000848401525b50505050565b6000611f3082611ed6565b611f3a8185611ee1565b9350611f4a818560208601611ef2565b611f5381611adb565b840191505092915050565b600060e082019050611f73600083018a611cdc565b8181036020830152611f858189611f25565b90508181036040830152611f998188611f25565b90508181036060830152611fad8187611f25565b9050611fbc6080830186611cdc565b611fc960a0830185611d5f565b81810360c0830152611fdb8184611f25565b905098975050505050505050565b60008115159050919050565b611ffe81611fe9565b82525050565b60006101008201905061201a600083018b611cdc565b818103602083015261202c818a611f25565b905081810360408301526120408189611f25565b905061204f6060830188611d5f565b61205c6080830187611cdc565b61206960a0830186611ff5565b61207660c0830185611cdc565b81810360e08301526120888184611f25565b90509998505050505050505050565b600060e08201905081810360008301526120b1818a611f25565b905081810360208301526120c58189611f25565b90506120d46040830188611cdc565b81810360608301526120e68187611f25565b90506120f56080830186611cdc565b81810360a08301526121078185611f25565b905061211660c0830184611d5f565b98975050505050505050565b600060e082019050612137600083018a611cdc565b81810360208301526121498189611f25565b9050818103604083015261215d8188611f25565b905061216c6060830187611d5f565b818103608083015261217e8186611f25565b905061218d60a0830185611cdc565b61219a60c0830184611ff5565b98975050505050505050565b600080600080600060a086880312156121c2576121c1611a69565b5b60006121d088828901611abc565b955050602086013567ffffffffffffffff8111156121f1576121f0611a6e565b5b6121fd88828901611be9565b945050604086013567ffffffffffffffff81111561221e5761221d611a6e565b5b61222a88828901611be9565b935050606086013567ffffffffffffffff81111561224b5761224a611a6e565b5b61225788828901611be9565b925050608086013567ffffffffffffffff81111561227857612277611a6e565b5b61228488828901611be9565b9150509295509295909350565b7f4f6e6c79204f7267616e697a65722063616e206372656174652074686520766f60008201527f7465720000000000000000000000000000000000000000000000000000000000602082015250565b60006122ed602383611ee1565b91506122f882612291565b604082019050919050565b6000602082019050818103600083015261231c816122e0565b9050919050565b7f566f74657220616c726561647920657869737473000000000000000000000000600082015250565b6000612359601483611ee1565b915061236482612323565b602082019050919050565b600060208201905081810360008301526123888161234c565b9050919050565b600060e08201905081810360008301526123a9818a611f25565b905081810360208301526123bd8189611f25565b90506123cc6040830188611d5f565b6123d96060830187611cdc565b6123e66080830186611ff5565b6123f360a0830185611cdc565b81810360c08301526124058184611f25565b905098975050505050505050565b7f596f75206861766520616c726561647920766f74656400000000000000000000600082015250565b6000612449601683611ee1565b915061245482612413565b602082019050919050565b600060208201905081810360008301526124788161243c565b9050919050565b7f596f752068617665206e6f20726967687420746f20766f746500000000000000600082015250565b60006124b5601983611ee1565b91506124c08261247f565b602082019050919050565b600060208201905081810360008301526124e4816124a8565b9050919050565b7f4e487b7100000000000000000000000000000000000000000000000000000000600052601160045260246000fd5b600061252582611cd2565b915061253083611cd2565b9250827fffffffffffffffffffffffffffffffffffffffffffffffffffffffffffffffff03821115612565576125646124eb565b5b828201905092915050565b7f4e487b7100000000000000000000000000000000000000000000000000000000600052602260045260246000fd5b600060028204905060018216806125b757607f821691505b602082108114156125cb576125ca612570565b5b50919050565b7f4e6f20766f7465727320617661696c61626c6500000000000000000000000000600082015250565b6000612607601383611ee1565b9150612612826125d1565b602082019050919050565b60006020820190508181036000830152612636816125fa565b9050919050565b7f4f6e6c79206f7267616e697a65722063616e2063726561746520612063616e6460008201527f6964617465000000000000000000000000000000000000000000000000000000602082015250565b6000612699602583611ee1565b91506126a48261263d565b604082019050919050565b600060208201905081810360008301526126c88161268c565b9050919050565b600060c08201905081810360008301526126e98189611f25565b905081810360208301526126fd8188611f25565b905081810360408301526127118187611f25565b90506127206060830186611cdc565b61272d6080830185611d5f565b81810360a083015261273f8184611f25565b905097965050505050505056fea2646970667358221220b3c586505ba13b5a90b3a08007cf231653cedf6877394141bcfc1371006c306a64736f6c63430008090033",
  "linkReferences": {},
  "deployedLinkReferences": {}
}